:020000040800F2
:1000000000000220DD020008D9020008153E0008A9
:10001000D9020008D9020008D90200080000000037
:10002000000000000000000000000000D9020008ED
:10003000D902000800000000D9020008053E0008AF
:10004000D9020008D9020008D9020008D902000824
:10005000D9020008D9020008D9020008D902000814
:10006000D9020008D9020008D90200085D3A000848
:10007000693A000891290008753A0008813A000899
:10008000D9020008E52F0008D9020008D9020008AB
:10009000D9020008D9020008D9020008D9020008D4
:1000A000D9020008D9020008D9020008D9020008C4
:1000B000D9020008D9020008D90200080930000856
:1000C000D902000815300008D9020008D90200083A
:1000D000D9020008D9020008D9020008D902000894
:1000E000D9020008D902000800000000D902000867
:1000F000D9020008D9020008D9020008D902000874
:10010000D9020008D9020008D9020008D902000863
:10011000D9020008D9020008D9020008D902000853
:10012000D9020008D9020008D9020008D902000843
:10013000D9020008D9020008D9020008D902000833
:1001400000000000000000000000000000000000AF
:10015000D9020008D9020008D9020008D902000813
:1001600021300008D9020008D9020008D90200088D
:10017000D9020008D9020008D9020008D9020008F3
:10018000D9020008D9020008D9020008D9020008E3
:10019000D9020008D9020008D9020008D9020008D3
:1001A000D9020008D9020008D9020008D9020008C3
:1001B000A5370008D9020008D9020008D9020008B2
:1001C000D9020008D9020008D9020008D9020008A3
:1001D000D9020008D9020008D9020008D902000893
:1001E000D9020008D9020008D9020008D902000883
:1001F000D9020008D9020008D9020008D902000873
:10020000D9020008D9020008D9020008D902000862
:10021000D9020008D9020008D9020008D902000852
:10022000D9020008D9020008D90200080000000025
:10023000D9020008D902000800000000D902000815
:10024000D9020008D9020008D9020008D902000822
:10025000D9020008D9020008D9020008D902000812
:10026000D9020008D9020008D9020008D902000802
:10027000D9020008D9020008D902000800000000D5
:10028000D9020008D9020008D902000800000000C5
:0802900000000000D902000883
:1002980010B5054C237833B9044B13B10448AFF3B8
:1002A80000800123237010BD2000002400000000FE
:1002B800A0B1000808B5034B1BB103490348AFF3CD
:1002C800008008BD0000000024000024A0B1000840
:1002D800FEE700BF0B480C4A904203D0121A0B49A4
:1002E8000AF084FD0A480B4A904203D0121A0021F2
:1002F8000AF08AFD03F0F6FE0AF054FD00F036F825
:10030800FEE700BF000000241C000024B8B100086C
:10031800200000244C130024704700BF00210B4A22
:100328000B4B0C4810B50C4C1170012201701A705F
:1003380022680A480A4B8A420160196003DD92006C
:1003480008480AF061FD084B236010BD040700242B
:1003580004000024FC0600240800002400070024F0
:10036800F8060024000000C000BADB000021144891
:10037800144D154C08B500F033FDFFF7CFFF1048BA
:1003880000F078F911490E4800F072F92B78012134
:100398000B4800EE103AB8EE400A00F00FFB237845
:1003A8000021074800EE103AB8EE400A00F006FBBC
:1003B800034800F059FA102003F02AFDE6E700BFD1
:1003C8003C000024FC0600240407002491050008D2
:1003D800304B70B593F825217F2A20D0FF2A0DD104
:1003E8009FED2D7AD3ED4B7A67EE877AF4EEC77AD4
:1003F800F1EE10FA02DB294C227862BB93F8353112
:100408007F2B00D070BD264A1378002B3CD025499D
:1004180000200B78107083F001030B7070BD224828
:10042800027852B11E4A117849B100241F4D047058
:100438001F48066804602E6001E0194A11780120FF
:10044800164C93F8353120704140164C7F2B1170B3
:100458002070D7D1D7E70021124A114B1170012221
:100468001970114B114D1A70124A114B11602A68FC
:1004780019608A4203DD92000F480AF0C5FC0F4A52
:1004880000232A60237070BD074B1B78002BBED059
:10049800B8E700BF3C00002400007A4405070024A8
:1004A80004070024FC06002404000024080000249B
:1004B800F806002400070024000000C000BADB0092
:1004C800284BF0B41C7884BB274F284D3B68284E36
:1004D80005EB830CDCED007AD6F800C0254DC0EDA5
:1004E800007AAC4508DB4FF0000CC6F800C0224E7D
:1004F80086F800C0214E3560214D2D783DB11F4D45
:1005080001332D6893FBF5F605FB16333B6054B9B0
:100518001C4B01EB8201D3ED006A91ED007AA6EE47
:10052800A77A80ED007AF0BC704701EB82030E4F8A
:100538000E4DD3ED007A3B680D4E05EB830595ED26
:10054800007A77EE877AC5ED007A0B4D2D782DB1BC
:10055800356805F1010CC6F800C0BFE7D6F800C041
:10056800BCE700BF0407002400070024000000C007
:10057800F806002400BADB00040000240800002468
:10058800FC060024F4060024F0B5002383B00746D7
:100598001048164601930D4600F070F80D4800F01B
:1005A8007DF80D4801F044FD0C4B83ED000AFFF780
:1005B8000FFF66B1002422460234394601A8FFF72E
:1005C8007FFF019BA6426B6045F8083BF3D803B058
:1005D800F0BD00BF3C00002498000024F40600246D
:1005E80010B50A4C00234FF40072094904F2B640D2
:1005F80063612362C4F8A0340AF0F8FB2046054A78
:100608000549BDE810400AF0B9BB00BF3C00002412
:1006180020AE0008000000242103000810B5037D67
:1006280082B0044601335BB2012B037503DDFF235F
:10063800037502B010BD816803EB831203440A44BA
:10064800197B0A4B41F0400101900093412302F0CD
:10065800F1FD0028EDD0204602F0D0FD01462046ED
:1006680002B0BDE8104002F04FBD00BF25060008EB
:1006780000F054BC183002F01BB900BF38B500F1C7
:100688005C0400F5827520461C3401F0D1FCAC42B4
:10069800F9D12046BDE8384001F0CABC38B500F5AC
:1006A800907400F5C8753C3001F00CFD20461034FC
:1006B80001F056FDAC42F9D138BD00BF2DE9F04F2D
:1006C80089B08446D0F8A44404270DF10F060DF133
:1006D80007050DF117090DF11808B24640F6FE7E20
:1006E80001965E4B04AEBCF8B6B493E8030002ABC7
:1006F800F34583E8030015F8012F4FEA221102F0B1
:100708000F0301EB811117FB03132344B3F80120F6
:10071800C2F30B020BEB020188BF42F48052C1F313
:100728000B01A3F80120A3F803104D49019B03C94D
:1007380086E803004B4913F8012F03C9019302F01F
:100748000F0388E803001011BCF8B61400EB801002
:10075800714517FB03032344B3F80120C2F30B02CE
:1007680001EB020088BF42F48052C0F30B00A3F8EB
:100778000120A3F8030019F8013FBCF8B6141A11B8
:1007880003F00F03714502EB821202EB830323444B
:10079800B3F80120C2F30B0201EB020042F4805BC4
:1007A800C0F30B00A3F8030052D9AA45A3F801B07F
:1007B80097D1B4F83D2040F6FE70BCF8B614C2F3E9
:1007C8000B028B18C3F30B03A4F83F3040F6FE73FB
:1007D8009942B4F8663088BF42F48052C3F30B03E1
:1007E800A4F83D20BCF8B6145A18C2F30B02A4F8BA
:1007F800682040F6FE729142B4F86A2088BF43F43C
:100808008053C2F30B02A4F86630BCF8B6148B18F8
:10081800C3F30B03A4F86C3040F6FE739942B4F8A6
:100828006E3088BF42F48052C3F30B03A4F86A20E9
:10083800BCF8B6145A188142C2F30B0288BF43F4BD
:100848008053A4F87020A4F86E3009B0BDE8F08F8A
:10085800AA45A3F801207FF444AFAAE720B0000816
:1008680048B0000854B00008D0F8A424D0F8A83440
:1008780010B5C0F8A43482B0C0F8A82400F5946478
:10088800B2F80310A3F80310B2F80710A3F8071082
:10089800B2F80B10A3F80B10B2F80F10A3F80F1052
:1008A800B2F81310A3F81310B2F81710A3F8171022
:1008B800B2F81B10A3F81B10B2F81F10A3F81F10F2
:1008C800B2F82310A3F82310B2F82710A3F82710C2
:1008D800B2F82B10A3F82B10B2F82F10A3F82F1092
:1008E800B2F83310A3F83310B2F83710A3F8371062
:1008F800B2F83B10A3F83B10B2F83F10A3F83F1032
:10090800B2F84410A3F84410B2F84810A3F84810FD
:10091800B2F84C10A3F84C10B2F85010A3F85010CD
:10092800B2F85410A3F85410B2F85810A3F858109D
:10093800B2F85C10A3F85C10B2F86010A3F860106D
:10094800B2F86410A3F86410B2F86810A3F868103D
:10095800B2F86C10A3F86C10B2F87010A3F870100D
:10096800B2F87410A3F87410B2F87810A3F87810DD
:10097800B2F87C10A3F87C10B2F88010A3F88010AD
:10098800002390F8AC14019480F8B43441F040018D
:10099800094841230090204602F04CFC08B902B0F7
:1009A80010BD204602F02AFC0146204602B0BDE8F0
:1009B800104002F0A9BB00BF25060008DFED217A30
:1009C80084B0214B20EE270A04AA03931144B5EE04
:1009D800C00A11F8042CF1EE10FA07D4B4EEE70AB5
:1009E800F1EE10FA26DD4FF0FF0C01E04FF0000C9D
:1009F800131102F00F01D0F8A42400EB4C0C03EB08
:100A08008313BCF8B60440F6FE7C03EB8103604513
:100A18001344B3F80120C2F30B0200EB020188BFB4
:100A280042F48052C1F30B01A3F80120A3F803108C
:100A380004B07047FCEEC07ACDED017A9DF804C091
:100A4800D6E700BF00007F430F191A1B2DE9F047B6
:100A580086B0002704469C4905A89C4E059702F0DD
:100A680053FB059B06F18402994904F59465C4F883
:100A7800A034FF23C4F8AC144FF0060E3946C4F86E
:100A8800A824C4F8A46484F8B43401E0D4F8A464B5
:100A98000A1101F00F008B00013102EB82129BB2A8
:100AA800202906F802E002EB8000D4F8A474D4F8F8
:100AB800A86407EB000CACF80130ACF8033006F87A
:100AC80002E0D4F8A8240244A2F80130A2F80330C6
:100AD800DCD194F8AE340B2B0FD0B4F8AE2401233C
:100AE80004F59660A4F8B024A4F8B234039001F099
:100AF800F9FF0021039802F0DFF804F2AC4704F292
:100B0800AE4A4FF0000917F8011B0126022304AA78
:100B180041F04001284600964FF000080391ADF8D7
:100B2800109002F06DFB142003F072F9022304AA5E
:100B3800039928460096ADF8109002F061FB142046
:100B480003F066F94FF4005202230399ADF8102020
:100B5800284604AA009602F053FB142003F058F923
:100B680043F20163039904AAADF81030052328461F
:100B78000093022302F044FBBA45C4D12046FFF794
:100B88009DFDD4F8A424D4F8A8342846C4F8A82491
:100B9800C4F8A434B2F80310A3F80310B2F807108D
:100BA800A3F80710B2F80B10A3F80B10B2F80F1047
:100BB800A3F80F10B2F81310A3F81310B2F8171017
:100BC800A3F81710B2F81B10A3F81B10B2F81F10E7
:100BD800A3F81F10B2F82310A3F82310B2F82710B7
:100BE800A3F82710B2F82B10A3F82B10B2F82F1087
:100BF800A3F82F10B2F83310A3F83310B2F8371057
:100C0800A3F83710B2F83B10A3F83B10B2F83F1026
:100C1800A3F83F10B2F84410A3F84410B2F84810F3
:100C2800A3F84810B2F84C10A3F84C10B2F85010C2
:100C3800A3F85010B2F85410A3F85410B2F8581092
:100C4800A3F85810B2F85C10A3F85C10B2F8601062
:100C5800A3F86010B2F86410A3F86410B2F8681032
:100C6800A3F86810B2F86C10A3F86C10B2F8701002
:100C7800A3F87010B2F87410A3F87410B2F87810D2
:100C8800A3F87810B2F87C10A3F87C10B2F88010A2
:100C9800A3F880100F4B94F8AC140093412384F808
:100CA800B48441F04001019502F0C4FA10B906B0CD
:100CB800BDE8F087284602F0A1FA0146284602F06E
:100CC80023FA06B0BDE8F08768B0000800000030DD
:100CD80000010B0025060008F0B50646A9B0102053
:100CE800002400F005F903460AA806F11807ADF834
:100CF8000C3006F15C05039901F058FA132000F056
:100D0800F7F803460DF13900ADF81030049901F0F9
:100D18004DFA112000F0ECF803460DF14A00ADF849
:100D28001430059901F042FA142000F0E1F8034666
:100D38000DF15B00ADF81830069901F037FA122072
:100D480000F0D6F803461BA8ADF81C30079901F04F
:100D58002DFA152000F0CCF803460DF17D00ADF812
:100D68002030089901F022FA0F2000F0C1F803465C
:100D78000DF18E00ADF82430099901F017FA04231B
:100D880007220AA9384601F01FFAE1B2384601F0F5
:100D9800A5FD014630460134019100F0DFF800233B
:100DA8002846DFED0E0A1C3501991A4601F028F98C
:100DB800062CEAD12146384601F090FD014630461E
:100DC800019100F0CBF80023DFED040A019906F544
:100DD80082701A4601F014F929B0F0BD6F12033B76
:100DE800F0B5064689B0019100F05CF801993046EB
:100DF80000F0F6F8244B0DF1170506F590740DF187
:100E08001E0793E803000B0C0690ADF81C108DF834
:100E18001E3015F8010F00F06BF803463046ADF8A8
:100E2800143000F09BF82046059901F07BF9BD428B
:100E380004F11004EDD11C2000F05AF803461B20E1
:100E4800ADF80C3000F054F803460E20ADF8103021
:100E580000F04EF803463046ADF8183000F07EF842
:100E6800039906F13C00069B049A01F005F9304607
:100E7800FFF7ECFD3046FFF72FFF3021304609B071
:100E8800BDE8F04000F04EB860B00008044B062200
:100E98001A7083F8412083F8842083F8C5207047AE
:100EA800000000300F4A01230F494FF0060C80F86C
:100EB8002730816040F2027180F810C0A0F8251038
:100EC80080F82B3010B4094CC0E9004202F181725D
:100ED8005DF8044B0532C26040F60662A0F829208E
:100EE800704700BF0105080509050705000705004B
:100EF8001F2882B009D8084B03EB400213F81030C2
:100F0800507843EA002002B0704701230C2043EADE
:100F1800002002B0704700BF74B00008143001F020
:100F280051B800BF38B500F1140504462DED028B09
:100F3800284601F035F8284601F040F82846B0EE7A
:100F4800408A01F029F8D0ED007AF8EE677A88EE49
:100F5800277ABDEC028B84ED0E7A38BD90ED0E0A2F
:100F6800704700BF0000000030B5032491B0012590
:100F7800194900234FF44172089106A9ADF82420BD
:100F880002939FED137BCDE90A45144D044602A850
:100F98008DED0C7B8DED0E7BCDE9063502F0E8FD7D
:100FA80040F601333025ADF80430019800F056F8CA
:100FB80003214FF07E53029A04F114000593CDE902
:100FC800035103A900F0B6FF11B030BDAFF30080A4
:100FD80000000000010000000405040604020404E7
:100FE80030B504462DED028B83B089B3012240F25F
:100FF80001130092ADF80430694604F1300002F0A4
:10100800D3FF204600F04CF8E01C02F051F904F13F
:10101800250001F067FD04F1140504F1290001F031
:1010280061FD2046FFF7A0FF284600F0C7FF2846CD
:10103800B0EE408A00F0B0FFD0ED007AF8EE677AA3
:1010480088EE277A84ED0E7A03B0BDEC028B30BDB2
:1010580040F201130091ADF80430CDE710B584B02B
:1010680003460124ADF8040003A8ADF80C30ADF830
:101078000E4001F037FD214603A801F01DFE204671
:1010880002F0C6FE002103A801F016FE204602F079
:10109800BFFE214603A801F00FFE04B010BD00BF3B
:1010A800F0B53F4C8BB0A06303781BB100252846F0
:1010B8000BB0F0BD0022079301233A49201D61605F
:1010C8000321C4E902230822202306910A21C4E946
:1010D800042340224FF4C073089102A9C4E90623EF
:1010E80000224FF40063C4E908234FF48052002320
:1010F800C4E90A2302220723CDE902230422082394
:10110800CDE9042309F032FA0546002844D110231A
:1011180001220126002702A90190201DCDE9022302
:101128004FF48052CDE9046709F04AFA642003F0CD
:1011380095F802A94FF48052201DCDE904670226D4
:101148001027CDE9026709F03BFA0322102302A910
:10115800201DCDE9022300230422CDE904234FF406
:10116800805209F02DFA40F23223042202A9019399
:101178001023201DCDE90223019A012305924FF483
:101188008052049309F01CFA40F60601201D09F06C
:1011980037FA28460BB0F0BD012528460BB0F0BD44
:1011A80010070024404100526A4A00232DE9F04309
:1011B80015688FB00A9315B10FB0BDE8F083664B80
:1011C80001210C244FF0030811600026D3F8D42025
:1011D8000327624842F48052DFF89891C3F8D4207C
:1011E800D3F8D42002F480520092009AD3F8E02079
:1011F80042F01002C3F8E020D3F8E02002F0100219
:101208000192019AD3F8E02042F04002C3F8E020AE
:10121800D3F8E02002F040020292029AD3F8E020CC
:1012280042F00802C3F8E020D3F8E02002F00802F8
:101238000392039AD3F8E02042F48072C3F8E020C6
:10124800D3F8E02002F480720492049AD3F8E020E4
:1012580042F08002C3F8E020D3F8E02002F08002D8
:101268000592059AD3F8E02042F02002C3F8E02066
:10127800D3F8E02002F020020692069AD3F8E02084
:1012880042F00402C3F8E0204FF68372D3F8E0304E
:101298000C9403F00403CDF82C80079302230799DC
:1012A80008A9CDE9082304F05FFE48F237120223AB
:1012B80008A92B480C94CDE90823CDE90A6704F066
:1012C80053FE4CF20372022308A926480C94CDE978
:1012D8000823CDE90A6704F047FE40F2FF620223C3
:1012E80008A921480C94CDE90823CDE90A6704F040
:1012F8003BFE4FF60C72022308A91C480C94CDE95A
:101308000823CDE90A6704F02FFE4FF63F020223B7
:1013180008A917480C94CDE90823CDE90A6704F019
:1013280023FED9F83800013002F01EFFD9F8383012
:101338000646581C02F020FF0223089008A93046F0
:101348000A950993CDE90B8404F00EFE0FB0BDE8B1
:10135800F08300BF08070024004402580010025818
:1013680000180258000C025800200258001C0258AD
:1013780000140258100700242DE9F04FDFF81084FC
:1013880006460D46144608F114002DED028B89B06F
:1013980000AF02F0E5FCD8F8143073B3D8F8183071
:1013A800D8F80490002B43690BBF4FF0080A4FF0A0
:1013B800100A4FF0020B4FF0040BB9F1000F2AD0BE
:1013C800A200EA46012B02F1070222F00702ADEB68
:1013D800020D6846ADEB020D694600F03F81022B15
:1013E80000F0D680002B6FD02246C847D546243758
:1013F800BD46BDEC028BBDE8F08FD8F81830002B45
:10140800F5D0D8F804904FF0080A4FF0020B436962
:10141800B9F1000FD4D1FB61D8F80030BB61002BC3
:10142800E5D0D54802F0E4FC6B46BBF1020F7861C9
:1014380008EE103AFB6900F083816A465146A2EB38
:10144800C40295466200EA46B2FBFBF2AAEBC4006E
:1014580085460AEB8200EE46F861ADEB010DF869AE
:101468000EEB820CC7F810C0EC46ADEB010D00EB9B
:101478008201CCF80400CCF8081001EB820138692D
:10148800E946CCF80C1000EB8201CCF800A001EB87
:101498008202C9E900E0C9E90212012B00F0648365
:1014A800022B00F06C82002B00F080816208494614
:1014B8006046BB69984718EE103A24379D46BD46EA
:1014C800BDEC028BBDE8F08F002C8DD01A46D8ED0C
:1014D8000B6A9FEDB27A8446331D36F922E00CF18F
:1014E800080C07EE90EA33F922E00232F8EEE77AC8
:1014F800944267EE877A67EEA67A4CED027A07EE99
:1015080090EAF8EEE77A67EE877A67EEA67A4CED0E
:10151800017AE2D8F9612246C847984ED8ED046AA4
:101528000020F9692B1D9FED9E7A9FED9E6ADFEDE5
:101538009E5A22E0F4EEC67AF1EE10FAC0F2C884A0
:1015480047F6FE72D1ED017A45F8202066EEA77ABB
:10155800F4EEC77AF1EE10FA40F2F080F4EEC67AB3
:10156800F1EE10FAC0F2D58447F6FE7243F8202057
:101578000230083184427FF639AFD1ED007A66EE49
:10158800A77AF4EEC77AF1EE10FAD3D83246D9E743
:10159800002C3FF429AFD8ED0B6A84469FED787A8A
:1015A8000022331D8E4656F822100CF1080C07EE67
:1015B800901A53F822100232F8EEE77A944267EE56
:1015C800877A67EEA67A4CED027A07EE901AF8EE63
:1015D800E77A67EE877A67EEA67A4CED017AE2D869
:1015E80071462246C7F81CE0C847664ED8ED046A23
:1015F8000020F9692B1D9FED6A7A9FED6A6ADFF872
:1016080094C120E0F4EEC67AF1EE10FAC0F27984C3
:101618003246D1ED017A45F8202066EEA77AF4EE3D
:10162800C77AF1EE10FA40F28780F4EEC67AF1EE4E
:1016380010FAC0F25E84324643F8202002300831A6
:1016480084427FF6D3AED1ED007A66EEA77AF4EE47
:10165800C77AF1EE10FAD5D86246DAE7002C3FF4E3
:10166800C3AED8ED0B6A86469FED477A4FF0000C63
:10167800331D56F82C200EF1080E82F40002A2F554
:10168800000207EE902A53F82C200CF1020CF8EE19
:10169800E77A82F400026445A2F5000267EE877AD1
:1016A80067EEA67A4EED027A07EE902AF8EEE77A10
:1016B80067EE877A67EEA67A4EED017AD9D8F96196
:1016C8002246C847314ED8ED046A0020F9692B1D1F
:1016D8009FED337A9FED336ADFF8BCC01FE0F4EE6C
:1016E800C67AF1EE10FAC0F2FC833246D1ED017AE7
:1016F80045F8202066EEA77AF4EEC77AF1EE10FAE4
:1017080018D9F4EEC67AF1EE10FAC0F2DA8332464E
:1017180043F820200230083184427FF667AED1EDCD
:10172800007A66EEA77AF4EEC77AF1EE10FAD6D808
:101738006246DBE76246EBE762467DE7324615E73D
:10174800A100D6466208073121F00701ADEB010D73
:10175800EA46ADEB010D6946ADEB0E0D0AEB8200D2
:10176800EC46ADEB0E0D01EB8202F861E946CCE9DF
:1017780000A0C9E9001290E6640700240280FFFF78
:10178800000000300082FF7F0000003482FF7F00ED
:101798004C070024007E00807E0080FF0000003897
:1017A80004FF7FBF04FF7F3F00FEFF46002C00F0D0
:1017B800C982BBF1020FD8F8202000F0FA827969BB
:1017C800C7F8049002EB810E5FED0C5A8A00DCF832
:1017D80008100EF104007A611A46DCF80C303B61FF
:1017E800331DD7F810903D61FD69C7E902CB8C46DF
:1017F800834636F92210D8ED0B7A06EE101A33F923
:10180800221006EE901A3EF92210B8EEC66A07EECC
:10181800101AF8EEE66A3BF92210B8EEC77A26EEFF
:10182800256A66EEA56A27EE257A26EE276A66EE11
:10183800A76A27EE277A07EE901A51080232F8EEC7
:10184800E77A0AEB8100944280ED006A05EB81009B
:1018580067EEA57AC0ED006A0CEB810009EB810107
:1018680080ED007A98ED0B7A67EE877AC1ED007A01
:10187800BFD8D7F804903D69D7E902CB6046620823
:10188800BB6949469847D8F828307A69D8ED046A80
:101898001A441FED3D7A1FED3D6A2B1D904602F15B
:1018A800040A5FED3F5A0022A84ED9E900EC51E046
:1018B800F4EEC67AF1EE10FAC0F2C78247F6FE706F
:1018C80045F822000CEB0100D0ED007A66EEA77A0D
:1018D800F4EEC77AF1EE10FA4BD9F4EEC67AF1EECF
:1018E80010FAC0F2BA8247F6FE70BBF1020F43F855
:1018F80022002BD0D9F808000844D0ED007A66EE13
:10190800A77AF4EEC77AF1EE10FA36D9F4EEC67A71
:10191800F1EE10FAC0F2CD8247F6FE7048F82200C8
:10192800D9F80C000144D1ED007A66EEA77AF4EEFE
:10193800C77AF1EE10FA1ED9F4EEC67AF1EE10FA73
:10194800C0F2AF8247F6FE714AF822100232944282
:101958007FF6B1AD51080EEB81008900D0ED007A19
:1019680066EEA77AF4EEC77AF1EE10FAA0D8304600
:10197800A6E73046B9E73146E6E73046CEE7002C21
:1019880000F0E081BBF1020FD8F8203000F0E181CF
:101998007A69DCF8081003EB820EC7F8049093000C
:1019A800DFED6B5A0EF1040000227B61DCF80C308D
:1019B8003B61331DD7F810903D61FD69C7E902CB43
:1019C8008C46834656F82210D8ED0B7A07EE101A8B
:1019D80053F82210B8EEC76A07EE101A5EF8221004
:1019E800F8EEC76A07EE101A26EE256A5BF8221091
:1019F800B8EEC77A66EEA56A26EE276A27EE257A3C
:101A080066EEA76A27EE277A07EE901A5108023287
:101A1800F8EEE77A0AEB8100944280ED006A05EB64
:101A2800810067EEA57AC0ED006A0CEB810009EB36
:101A3800810180ED007A98ED0B7A67EE877AC1ED27
:101A4800007ABFD8D7F804903D69D7E902CB604641
:101A58006208BB6949469847D8F828307A69D8EDB2
:101A6800046A1A449FED3E7A9FED3E6A131D924622
:101A7800DFF8E4C00022FB612B1D364ED9E9008E49
:101A88004EE0F4EEC67AF1EE10FAC0F2FC81304670
:101A980045F822000EEB0100D0ED007A66EEA77A39
:101AA800F4EEC77AF1EE10FA49D9F4EEC67AF1EEFF
:101AB80010FAC0F2EF813046BBF1020F43F8220062
:101AC8002AD0D9F808000844D0ED007A66EEA77A43
:101AD800F4EEC77AF1EE10FA35D9F4EEC67AF1EEE3
:101AE80010FAC0F2C98130464AF82200D9F80C0031
:101AF8000144D1ED007A66EEA77AF4EEC77AF1EEEA
:101B080010FA1ED9F4EEC67AF1EE10FAC0F2AD81E1
:101B18003146F86940F82210023294427FF6CBAC85
:101B2800510808EB81008900D0ED007A66EEA77AAB
:101B3800F4EEC77AF1EE10FAA3D86046A8E760463B
:101B4800BAE76146E5E76046CEE700BF0280FFFFDF
:101B5800000000300082FF7F007E0080000000341B
:101B680004FF7FBF04FF7F3F002C00F0EB807A6901
:101B78000021D8F82030C7F8109003EB820ED7F870
:101B88001C909300FD610EF104021FED0C6A7B614D
:101B9800331D154656F821204808D8ED0B6ABBF1CD
:101BA800020F82F40002A2F5000207EE902A53F811
:101BB800212082F40002B8EEE77AA2F5000227EEAF
:101BC800067A07EE902A0AEB8002F8EEE77A27EE0B
:101BD800267A67EE867A82ED007A09EB80024FEA70
:101BE800800067EEA67AC2ED007A27D05EF8212041
:101BF80082F40002A2F5000207EE902A55F821208F
:101C080082F40002B8EEE77AA2F5000227EE067A1F
:101C180007EE902ADCF80820F8EEE77A024427EE6F
:101C2800267A67EE867A82ED007A98ED0B7ADCF8F0
:101C38000C2067EE877A0244C2ED007A02318C42AA
:101C4800A8D8D7F8109060466208BB694946FD6974
:101C58009847D8F828307A69D8ED046A1A441FEDF5
:101C6800407A1FED406A131D9246DFF8C4C2002275
:101C7800FB612B1DAB4ED9E9008E4EE0F4EEC67A1F
:101C8800F1EE10FAC0F2C580304645F822000EEB9E
:101C98000100D0ED007A66EEA77AF4EEC77AF1EE8D
:101CA80010FA49D9F4EEC67AF1EE10FAC0F2BF8004
:101CB8003046BBF1020F43F822002AD0D9F80800B9
:101CC8000844D0ED007A66EEA77AF4EEC77AF1EE12
:101CD80010FA35D9F4EEC67AF1EE10FAC0F2AE80F9
:101CE80030464AF82200D9F80C000144D1ED007AB8
:101CF80066EEA77AF4EEC77AF1EE10FA1ED9F4EE82
:101D0800C67AF1EE10FAC0F28B803146F86940F8D5
:101D18002210023294427FF6CEAB510808EB8100C4
:101D28008900D0ED007A66EEA77AF4EEC77AF1EE74
:101D380010FAA3D86046A8E76046BAE76146E5E727
:101D48006046CEE7224649466046BB699847FFF79A
:101D5800B2BBC7F810B0002298ED0B6A331DDFED57
:101D6800726AD7F81CB0786956F8221007EE901AF4
:101D780053F82210B8EEE77A07EE901A51080232AB
:101D8800F8EEE77A27EE267A0AEB810E94420BEBFF
:101D9800810167EEA67A27EE067A67EE867A8EEDDF
:101DA800007AC1ED007ADFD88300D7F810B07B61E4
:101DB8004DE61A46C7F810B098ED0B6A331DDFEDF3
:101DC8005B6AD7F81CB0786936F9221007EE101A4A
:101DD80033F9221007EE901AB8EEC77A510802328A
:101DE800F8EEE77A27EE267A0AEB810E94420BEB9F
:101DF800810167EEA67A27EE067A67EE867A8EED7F
:101E0800007AC1ED007ADFD88300D7F810B07B6183
:101E180034E5F0EE675AFEEEE45A15EE900A34E720
:101E2800F0EE675AFEEEE45A15EE901A6EE7F0EE01
:101E3800675AFEEEE45A15EE900A3AE7F0EE675A52
:101E4800FEEEE45A15EE900A4BE767EEA57AFDEE32
:101E5800E77A17EE900A00B232E567EEA57AFDEE52
:101E6800E77A17EE900A00B23FE5F0EE675AFEEE09
:101E7800E05A15EE901A4CE6F0EE675AFEEEE05A7C
:101E880015EE900A30E6F0EE675AFEEEE05A15EECF
:101E9800900AFDE5F0EE675AFEEEE05A15EE900A5C
:101EA8000AE667EEA57AFDEEE77A17EE901A09B210
:101EB8004AE567EEA57AFDEEE77A17EE900A00B2DA
:101EC8002CE5F0EE675AFEEEE45A15EE902A1FE470
:101ED80067EEA57AFDEEE77A17EE902A12B2FFF7C1
:101EE80031BBF0EE675AFEEEE45A15EE902AFFF782
:101EF800FDBBF0EE675AFEEEE05A15EE902AFFF7AA
:101F08009BBBF0EE675AFEEEE05A15EE902AFFF7FB
:101F180080BB67EEA57AFDEEE77A17EE902A12B23B
:101F2800FFF724BB82FF7F0000000030000000386C
:101F38007E0080FF30B5154C154685B0046004F16D
:101F4800080C01AB07C98CE80700D4ED047AF5EE5C
:101F5800C07A83E80700F1EE10FA14DDF7EE006AA4
:101F680086EEA77A84ED0B7A6DB1204640F8145FAF
:101F780001F0F6FE064903690020064AE161626243
:101F8800E36005B030BD012005B030BD4C0700242A
:101F9800082100300801003000680830704700BF91
:101FA800B1F5806F03680A4628BF4FF48062B1F527
:101FB800806F9A6094BF0020012070470068143039
:101FC80001F004BF30B5046883B008480D46A36823
:101FD800626AE1699B00009004F1140001F0C2FEFE
:101FE8000020C4E9000503B030BD00BF811300081C
:101FF800024B0022C3E90522704700BF4C070024AA
:10200800B6EE007A437660EE200A0023F7EE007AF7
:10201800016080ED020A60EE870A0276C0ED047A5C
:10202800C36087EEA07A436180ED017A704700BFF4
:102038000268037E128807EE902AFBEEC87A1BB16D
:10204800B7EE007A77EE677AD0ED056A90ED047AFC
:1020580077EEE67A437E67EE877A0BB1F1EE677A20
:1020680090ED030A90ED017A77EEC07AA7EE270A81
:1020780080ED030A704700BF10B584B004461030E5
:10208800ADF804304FF48073ADF80820ADF80C10AB
:10209800828001806382E3828DED000A00F022FDD8
:1020A80004F1140000F01EFD9DED000A0199204680
:1020B80000F038F800224FF6FF73E261238304B082
:1020C80010BD00BF70B5067E04461030760000F0E3
:1020D800E5FD657E034676B26D0004F114001E43EB
:1020E8006DB2267600F0DAFD05432046657600F0ED
:1020F80037F8237E002203F00303E261022B06D0A7
:10210800627E02F00302022A00D133B170BD637E01
:102118009B07FBD10123E36170BD4FF0FF33E361FF
:1021280070BD00BFB7EE007A0346012282B0C1F34A
:1021380007204FF0000CC7EE007AADF80410C3F882
:102148000CC04FF0000C987098181A70597083F8EA
:1021580003C09A809A71C3ED027A02B000F0C2BC43
:1021680038B54479054683790130640064B2B3B167
:1021780000F094FDB0FA80F35B092343DBB2A3F1CE
:102188007F026B71012A0ED9FF2B07D1D5ED037A97
:1021980095ED027A77EE877AC5ED037A38BD00F0BF
:1021A8007DFD43B2E9E70023EB6038BD82B04FF014
:1021B800000C0323ADF80410BDF8042080F810C00B
:1021C8000280438002B070472DE9F04F03700D463E
:1021D8000023D44CD4498DB0426006468B61174623
:1021E800C4F82811A4F80931C4F8FD30C4F8013145
:1021F800C4F80531C4F80C31C1E90033C1E9023330
:10220800C1E904333831CDE90133CDE90333CDE9F0
:102218000533CDE90733CDE90933C4E94433C4E9CB
:102228004633C4F82C11C4E9483384F8FC2084F8F8
:102238000C324368002B00F0E781EB68A44628685D
:102248006968AA68ACE80F002B7C8CF800302B7CFE
:1022580084F8FD302B7C002B40F0FB817368012B48
:1022680040F29A81D5F81130D5F81D20D5F815001F
:10227800D5F81910C4F81130AC4B58609960DA6081
:1022880095F821201A7495F8213084F8FE3095F8D5
:102298002130002B40F0E1817368022B40F27C81F1
:1022A800D5F82230D5F82E20D5F82600D5F82A10F2
:1022B800C4F822309E4B58609960DA6095F8322055
:1022C8001A7495F8323084F8FF3095F83230002BC4
:1022D80040F0C7817368032B40F25E81D5F8333034
:1022E800D5F83F20D5F83700D5F83B10C4F833307F
:1022F800904B58609960DA6095F843201A7495F805
:10230800433084F8003195F84330002B40F0AD811C
:102318007368042B40F240812B6D686CA96CEA6CE1
:10232800DFF82CC2ACE80F0095F854308CF8003078
:1023380095F8543084F8013195F8543013B10123DD
:1023480084F80C327368052B40F22681D5F8553095
:10235800D5F86120D5F85900D5F85D10C4F8553086
:10236800754B58609960DA6095F865201A7495F88D
:10237800653084F8023195F8653013B1012384F88B
:102388000C327368062B40F20781D5F86630D5F811
:102398007220D5F86A00D5F86E10C4F86630674B1D
:1023A80058609960DA6095F876201A7495F8763056
:1023B80084F8033195F8763013B1012384F80C3290
:1023C8007368072B40F2E880D5F87730D5F883207A
:1023D800D5F87B00D5F87F10C4F87730584B586093
:1023E8009960DA6095F887201A7495F8873084F830
:1023F800043195F88730002B40F0AC817368082BC6
:1024080040F2CA80D5F89430D5F88800D5F88C10F9
:10241800D5F89020DFF83CC1ACE80F0095F898306B
:102428008CF8003095F8983084F8053195F8983094
:10243800002B40F093817368092B40F2AD80D5F8EA
:102448009930D5F8A520D5F89D00D5F8A110C4F885
:1024580099303C4B58609960DA6095F8A9201A7455
:1024680095F8A93084F8063195F8A930002B40F08A
:102478007B8173680A2B40F28F80D5F8AA30D5F893
:10248800B620D5F8AE00D5F8B210C4F8AA302E4B55
:1024980058609960DA6095F8BA201A7495F8BA30DD
:1024A80084F8073195F8BA30002B40F061817368E1
:1024B8000B2B71D9D5F8BB30D5F8C720D5F8BF009C
:1024C800D5F8C310C4F8BB30204B58609960DA6067
:1024D80095F8CB201A7495F8CB3084F8083195F824
:1024E800CB30002B40F0488173680C2B54D9D5F8B9
:1024F800D830D5F8CC00D5F8D010D5F8D420DFF8EE
:1025080058C0ACE80F0095F8DC308CF8003095F82E
:10251800DC3084F8093195F8DC30FBB1012384F80C
:102528000C321BE08007002408410030910700248A
:10253800A2070024B3070024D5070024E6070024D7
:10254800F7070024190800242A0800243B0800245F
:10255800C4070024080800244C08002473680D2BC5
:102568001AD9D5F8DD30D5F8E920D5F8E100D5F845
:10257800E510C4F8DD30BB4B58609960DA6095F817
:10258800ED201A7495F8ED3084F80A3195F8ED309D
:1025980013B1012384F80C324FF48022B248082189
:1025A8000023FFB2C4F83831C4F8487184F84431C4
:1025B800C4E94C020122C4E94F2194F80C12C4E981
:1025C800553399B384F8453184F84C21C4F85C211B
:1025D800337800200021C4E958018BB30122013B64
:1025E80084F86821C4F878210022C4F87421082BE3
:1025F80028D8DFE813F0C500CA00CF00D400D900FE
:10260800DE00E300E900F000D7B2C4F83831964A9A
:10261800012184F84431C4F84871C4E955334FF4B2
:102628008023C4E94C230823C4E94F13012384F809
:102638004531002384F84C310323C4F85C31C7E7E3
:1026480084F86831894802F041FA034688B1FFBE30
:10265800FEE7012384F80C3200E6012384F80C32EB
:102668001AE6012384F80C3234E6012384F80C328C
:102678004EE601A97D48019302F086FB0546002835
:1026880070D1022240F2FF73CDE906230023042211
:10269800CDE9082394F8FC30002B00F0D3804FF0EC
:1026A800060921E0022B00F09D80012B40F0C2803A
:1026B8009AF80130012B00F0BF80002B6C4B18BF3B
:1026C800002304A96948CDE9043901F02BFE00284C
:1026D80040F0BD80013594F8FC30EDB2AB4240F2D9
:1026E800B180644B53F825902FB207EB071704EB22
:1026F800070A504600F0F6F905EB051323441B7C46
:10270800042B7BDC022B00F38F8000F08B80631995
:10271800002283F8EE20E35D002BC3D19AF8013044
:10272800062B00F08380072B00F08880022B00F036
:102738009080032B00F08F80002B00F08E80012BFF
:1027480000F08D80042B00F0AF80052B4A4B18BF9A
:102758000023B6E7012384F80C324FE6012384F8FE
:102768000C3268E6FFBEFEE7012384F80C3280E6EF
:10277800012384F80C329AE6012384F80C32B3E67C
:1027880003234022C4E95B325CE707236022C4E9E3
:102798005B3257E70F238022C4E95B3252E71F23DD
:1027A800A022C4E95B324DE73F23C022C4E95B3273
:1027B80048E77F23E022C4E95B3243E7FF234FF475
:1027C8008072C4E95B323DE740F2FF134FF4907228
:1027D800C4E95B3236E740F2FF334FF4A072C4E934
:1027E8005B322FE79AF80130042B21D0052B27D034
:1027F8005BB3012B214B18BF002362E703233E1D67
:1028080004EB05084FF0000B264488F8EE303046FC
:102818000BF1010B00F066F998F8EE3004365B45D1
:10282800F5DC78E70123EAE70223E8E7144B48E7F9
:10283800144B46E7002344E7134B42E7134B40E7AA
:10284800134B3EE70DB0BDE8F08F124B39E7FFBEE2
:10285800FEE7114B35E7114B33E7114B31E7114BCD
:102868002FE700BF5D08002400200240B0080024C4
:102878000002B025B4B000080000B84F0008302EA0
:102888000800900C1000C0102000F0148000501DAB
:10289800000180210004002A0040C03A0080F03E78
:1028A8000000214300005247004B0AE70000844B18
:1028B80038B5094C40F2FF724FF0011104F59875D4
:1028C800284602F00FFA94F8FC20D4F8281128467C
:1028D800BDE8384001F07ABF80070024034B0D297A
:1028E800D3F8280198BF00EB410070478007002407
:1028F800214B02689A4200D07047204B00212048A3
:10290800D3F8D82030B542F020021E4C83B0C4F86A
:10291800940104F5CA75C4E96D11C3F8D8200922D9
:10292800D3F8D830284603F020030193019B94F88C
:102938000C328B4214BF0B464FF48073C4F8B0318D
:102948000023C4E9662300224FF48063C4E96823A6
:102958004FF400624FF40053C4E96A2302F03AFCD2
:1029680008B1FFBEFEE704F59873C4F87C51C4F8BB
:10297800CC3103B030BD00BF0020024000440258F3
:102988004000024080070024014802F09BBF00BFBE
:102998001409002402682DE9F84F4C4B9A4201D0E3
:1029A800BDE8F88F4A4E96F80C32002BF8D096F80E
:1029B800FC20002A76D0002406F10C0906F586755D
:1029C80006F1FC07A04613E003F0010117F80FBC5D
:1029D800A9F1080000F070F9BBF1010F25D896F8AD
:1029E800FC20013409F111090235A3B29A422BD90E
:1029F80017F8013F002BF4D0D6F8283100212A78A7
:102A080033F81400D6F82C3103EB041323F8120022
:102A18002B8801339BB22B805FFA83FA3A789A426B
:102A2800D2D88A46A5F80080D0E7CAF34001A9F1B8
:102A3800040000F041F9BBF1020FCAF38001CED0C7
:102A4800484600F039F9CAE796F80C020922002333
:102A5800204900284FF00000C6F894114FF4806117
:102A6800C6E966234FF400624FF40053C6E96A23AF
:102A780014BF00224FF48072C6E96801002316488B
:102A8800C6E96C23C6F8B83102F0A4FB08B1FFBE52
:102A9800FEE796F8FC20D6F828111048BDE8F84F54
:102AA80001F094BE092000210A4BC6E96601002006
:102AB8004FF48061C6F89431C6E968014FF40060AC
:102AC8004FF40051C6E96A01D8E700BF0020024070
:102AD800800700244000024014090024B0080024A4
:102AE800704700BF30B583788FB00446022B37D0CB
:102AF800032B33D0012B31D000230A93E378012B29
:102B08002AD0022B28D000230B93002320460C93B5
:102B180001F02AFB0546204601F02EFB2378099098
:102B2800082B13D8DFE803F01F3245586B7E91A4B9
:102B38000500594BD3F8E02042F48072C3F8E02036
:102B4800D3F8E03003F480730893089B09A928465A
:102B580003F00AFA0FB030BD0B93D6E70A93CDE71E
:102B680011230A93CAE74C4B09A92846D3F8E02059
:102B780042F00102C3F8E020D3F8E03003F001038B
:102B88000093009B03F0F0F90FB030BD424B09A948
:102B98002846D3F8E02042F00202C3F8E020D3F838
:102BA800E03003F002030193019B03F0DDF90FB05D
:102BB80030BD394B09A92846D3F8E02042F0040279
:102BC800C3F8E020D3F8E03003F004030293029B3B
:102BD80003F0CAF90FB030BD2F4B09A92846D3F826
:102BE800E02042F00802C3F8E020D3F8E03003F018
:102BF80008030393039B03F0B7F90FB030BD264BCE
:102C080009A92846D3F8E02042F01002C3F8E020D2
:102C1800D3F8E03003F010030493049B03F0A4F905
:102C28000FB030BD1C4B09A92846D3F8E02042F06C
:102C38002002C3F8E020D3F8E03003F02003059326
:102C4800059B03F091F90FB030BD134B09A9284635
:102C5800D3F8E02042F04002C3F8E020D3F8E03097
:102C680003F040030693069B03F07EF90FB030BDD6
:102C7800094B09A92846D3F8E02042F08002C3F89E
:102C8800E020D3F8E03003F080030793079B03F0BC
:102C98006BF90FB030BD00BF0044025838B5054687
:102CA80001F062FA0446284601F066FA0146204619
:102CB800BDE8384003F060BB70B506460D4601F02C
:102CC80053FA0446304601F057FA2A1E01462046B8
:102CD80018BF0122BDE8704003F054BB2DE9F0474E
:102CE80004460E461746984600F18405284604F027
:102CF8002BFD2028FAD12168234B0129E36006D057
:102D080002293ED0002939D00120BDE8F0872423CC
:102D180023614023002004F10C0A63614FF48063AF
:102D2800A0612063E361C4E90800C4E90A00C4E9BA
:102D38000E00504602F04EFA814608B1FFBEFEE78B
:102D48007100656494F900602846C4F8BCA03A464E
:102D58000E4C4346089D89B226700D4E099F35607A
:102D68000C4D2F6003F0EEFC0028CED0FF2301208D
:102D7800C6F80090C5F800902370C6E722232361A7
:102D8800C7E74A232361C4E7A0000240D009002412
:102D980090090024D40900240023122270B586B0BB
:102DA800CDE9022304930368032B01D80423059378
:102DB800061D841D304601F0D7F90546304601F05E
:102DC800DBF9034601A92846019303F0CDF8204614
:102DD80001F0CAF9034620461C4601F0CDF901A9C5
:102DE80003462046019303F0BFF806B070BD00BF4C
:102DF800634A0368934210B58CB028D0614A934265
:102E080058D0614A934200F09480604A934201D0BE
:102E18000CB010BD5E4C5F48D4F8E03043F00203BC
:102E2800C4F8E030D4F8E03003F002030A930A9BB8
:102E3800FFF7B2FFD4F8F43043F08003C4F8F4305D
:102E4800D4F8F43003F080030B930B9BE0E7504C6D
:102E58005148D4F8E03043F00203C4F8E030D4F825
:102E6800E03003F002030193019BFFF795FFD4F8CC
:102E7800E83000221F2043F400131146C4F8E8305C
:102E8800D4F8E83003F400130293029BD4F8D83046
:102E980043F00103C4F8D830D4F8D83003F0010364
:102EA8000393039B01F0E4FF1F200CB0BDE8104022
:102EB80002F01CB8364C3948D4F8E03043F08003AF
:102EC800C4F8E030D4F8E03003F080030493049BA6
:102ED800D4F8E03043F00203C4F8E030D4F8E0302E
:102EE80003F002030593059BFFF756FFD4F8E8307B
:102EF8000022212043F480031146C4F8E830D4F8B6
:102F0800E83003F480030693069BD4F8D83043F0E6
:102F18000103C4F8D830D4F8D83003F0010307937C
:102F2800079B01F0A5FF21200CB0BDE8104001F07F
:102F3800DDBF1B48FFF730FF154B00224820D3F8B0
:102F4800E840114644F40004C3F8E840D3F8E840E8
:102F580004F400040894089CD3F8D84044F0010411
:102F6800C3F8D840D3F8D83003F001030993099B7C
:102F780001F07EFF48200CB0BDE8104001F0B6BF5C
:102F88000054004000580040005C0040001C0058FD
:102F980000440258480C0024D8090024A80A002438
:102FA800780B00240B4A00230B494FF0FF0C1360E9
:102FB80081F800C053619362C2E90133C2E9033367
:102FC800C2E90633C2E90833C2E90B33C2E90D335B
:102FD800704700BF94090024D0090024064B1A78D2
:102FE800120600D570471B78D02204485BB202FB5A
:102FF80003000C3002F066BCD0090024D809002474
:10300800014803F059BC00BF5C0A0024014803F0E2
:1030180053BC00BF2C0B0024014803F04DBC00BF7B
:10302800FC0B0024164AFF21F0B5136883B0154C39
:10303800217023B100211448116000689847237853
:103048001B0614D5114F0025114E3C4662683046C8
:10305800D03642B123690193E3680093238921881C
:10306800FFF73CFE28B101351434032DEED103B02F
:10307800F0BD05EB850507EB85056860F7E700BF40
:1030880090090024D0090024D409002494090024BC
:10309800D8090024F0B583B0164C03F029FA164A73
:1030A800FF21136821702BB1002114481160012100
:1030B8000068984723781B0614D5114F0025114E38
:1030C8003C4662683046D03642B123690193E368D2
:1030D800009323892188FFF701FE28B101351434B4
:1030E800032DEED103B0F0BD05EB850507EB850593
:1030F8006860F7E7D009002490090024D409002467
:1031080094090024D8090024F0B50F68D025324C62
:1031180085B007FB05F5032F04EB050606602BDCDD
:103128002E4B0DF1100E07C9944686E807000FCB09
:103138000EE90F000EEB8703BCF1010F53F8103CAA
:10314800C6F884303ED0BCF1020F31D0BCF1000F7C
:1031580024D08435D0230022012103FB07432544D2
:10316800C3E923212846C3F8A420C3E92522C3E9DB
:10317800272203F0BDF910B1012005B0F0BD0146CA
:10318800284604F0E5FA0028F6D10146284604F05E
:1031980009FB003818BF012005B0F0BD00F092FF10
:1031A8000F4B98420CBF0F4B0F4BC6F88830D0E737
:1031B80000F088FF0A4B98420CBF0C4B0C4BC6F82A
:1031C8008830C6E700F07EFF054B98420CBF094BDC
:1031D800094BC6F88830BCE7D809002428B0000895
:1031E800000E27075F4390608A62E030200BA01032
:1031F8001A0980102D0FB0303211D02000687047A6
:10320800F0B5046883B00D4616461F468434204640
:1032180004F09AFA2028FAD169002046089C3B4617
:10322800324689B2009403F0B9F9003818BF01207A
:1032380003B0F0BD00682DE9F041046886B0032CA6
:10324800DDE90CC628D0DFF8608098F8008018F017
:10325800800F1AD1029204EB8404124A0DF1040E75
:10326800CDF810C002EB840C002401940394ADF84F
:103278000410ADF80C30BEE80F00ACE80F00204693
:10328800CCF8006006B0BDE8F081CDE90CC606B008
:10329800BDE8F041FFF722BD0124204606B0BDE895
:1032A800F08100BF94090024D00900240000000028
:1032B8002DE9F04FC84C03462DED048B2046ABB0EA
:1032C80023655D781E7804F0EDFBE0B9012D4FF021
:1032D8000107C24A14BF4FF480134FF40003E060A3
:1032E8002260C4E9017793FAA3F3B3FA83F34FF4A6
:1032F8008078013BC4F81480C4E9070020462361A4
:1033080004F064FB28B101202BB0BDEC048BBDE8B0
:10331800F08F662313901B9041F288320EA90E930A
:10332800CDE91480CDE91600CDE91900204604F056
:10333800D7FB0028E7D1992341F288320EA920460D
:103348000E9304F0CDFB0028DDD14FF0050A4FF0B5
:103358008079249041F28833219008AA29901CA9E9
:10336800CDF870A0CDF894909FED917B9FED929B46
:103378009FED938BCDE92280CDE9270020468DED86
:10338800087B8DED0A9B8DED0C8B04F015FD002854
:10339800B9D11897ADF8080013901B90CDE91480A7
:1033A800CDE91609CDE91900002D00F0BA80F02307
:1033B800ADF80830C02341F288320EA986480E9332
:1033C80004F08EFB00289ED141F28832824802A97F
:1033D80004F0F0FB002896D14FF480744FF00508F4
:1033E8004FF080754FF0000A4FF0010B21902990A3
:1033F80041F2883308AA1CA92294CDF8708025953B
:103408009FED6D9B9FED6E8BCDE92300CDE92700E5
:103418007148CDE908AB8DED0A9B8DED0C8B04F05E
:10342800CBFC00287FF46FAF012706238DF8070037
:1034380041F2883213901CA91B90219029900E9775
:103448001C93CDE91440CDE91605CDE91900CDE965
:103458002240CDE92400CDE927005F4804F040FB75
:1034680000287FF450AF41F2883308AA1CA95A48B3
:10347800CDF8708025959FED547B8DED0A9B8DEDE1
:103488000C8B8DED087B04F097FC00287FF43BAF94
:1034980041F288320EA9504804F022FB00287FF43C
:1034A80032AF402341F288320DF107014A488DF8C6
:1034B800073004F07FFB00287FF425AF02AA41F211
:1034C80088330EA94448CDF8388017959FED407B86
:1034D8008DED049B8DED068B8DED027B04F06CFC6D
:1034E80000287FF410AF219008AA299041F2883370
:1034F8001CA92294CDF870802595CDE92300CDE94B
:1035080027003548CDE908AB8DED0A9B8DED0C8B76
:1035180004F052FC00287FF4F6AE002E60D00020A4
:10352800F2E6612341F288320EA920460E9304F098
:10353800D7FA00287FF4E7AE41F2883202A9204684
:1035480004F0B6FB00287FF4DEAEBDF8083041F287
:10355800883221901CA923F07803299043F0400376
:10356800ADF808300623CDE92280CDE92400CDE965
:10357800270020461C9304F0B3FA00287FF4C3AE5A
:1035880020460225022441F2883308AA1CA9CDF856
:1035980070A0CDF894908DED0A9B8DED0C8BCDE944
:1035A800084504F009FC00283FF404AFABE600BF6F
:1035B80000000000010000001000000001000000F1
:1035C80000000000000040000200000002000000AF
:1035D8004000000040000000180D00240050005278
:1035E800EB204FF48074002300251C904FF400500A
:1035F80022944FF440641F90A02020930EAA239495
:103608004FF4404427931CA928934FF080531E90F1
:1036180006202494002429934FF0407321900548F4
:103628002593CDE90E4504F03FFC003818BF012072
:103638006AE600BF180D00243E4B02682DE9F047EA
:103648009A428CB04FF00005CDE90755CDE90955F0
:103658000B9502D00CB0BDE8F087374B02263749EE
:1036680005AFD3F8D420B146DFF8D4A04FF0030853
:1036780042F48042C3F8D420D3F8D42002F4804224
:103688000092009AD3F8E02042F04002C3F8E0200C
:10369800D3F8E02002F040020192019AD3F8E0202A
:1036A80042F02002C3F8E020D3F8E02002F0200224
:1036B8000292029AD3F8E02042F01002C3F8E02008
:1036C800D3F8E02002F010020392039AD3F8E02026
:1036D80042F00202C3F8E020D3F8E03003F002031E
:1036E8000493049B03C90590ADF81810DAF850400C
:1036F80034440236204600F037FD034620461C4677
:1037080000F03AFD17F8013B07A907902046CDE9DC
:103718000895CDE90A8302F027FC0E2EE6D1002297
:103728005C20114601F0A4FB5C2001F0DFFB0CB02B
:10373800BDE8F0870050005200440258F4B0000879
:10374800180D0024124B02689A4200D07047114AA3
:10375800D2F8D43070B523F4804302250E4EC2F857
:10376800D430346D2C440235204600F0FDFC03466D
:1037780020461C4600F000FD0146204602F034FDBC
:103788000E2DEED15C20BDE8704001F0BDBB00BF3E
:103798000050005200440258180D0024014804F05B
:1037A8000FBC00BF180D002438B5036871B9026A50
:1037B80000F1280500F5AC74012A0CBF0021402156
:1037C8008BBB1D4B5722C0F858310DE0426A00F1FF
:1037D800C00500F5E874012A0CBF00214021EBB1B7
:1037E800164B5A22C0F8D03100232046C4E90121E3
:1037F8004FF480524FF48061636262614FF48042FB
:10380800C4E903314FF48073C4E906234FF400334D
:10381800236201F0DFFC58B1FFBEFEE7084B5822D7
:10382800C0F8D031E0E7074B5922C0F85831DBE740
:10383800C5E92044A56338BD10000240700002406D
:1038480028000240580002402DE9F043821D054639
:103858008BB0031D05F10A010830CDE9052305F1F8
:103868000C02AB69CDE907010992002B3DD0EB6949
:10387800B3FA83F84FEA58180123022205AE0AAFBB
:103888004FF006090393CDE9012356F8044B2B7931
:103898002278934216D02B68F3B1012B02D1F2B1F2
:1038A8000A230493204600F067FC03462046009351
:1038B80000F05AFC694602F057FBBE42E5D10BB056
:1038C800BDE8F083697963789942E4D1B8F1000FD3
:1038D800F3D02B68002BE0D1CDF81090E2E76378A5
:1038E800022B14BF0A230823DBE74FF00108C3E7C4
:1038F800534A0368934230B505468BB055D0203201
:10390800934252D04F4A934204D02032934201D07E
:103918000BB030BD4C4C4D48D4F8E03043F00103B7
:10392800C4F8E030D4F8E03003F001030593059BB8
:10393800D4F8E03043F00803C4F8E030D4F8E030BD
:1039480003F008030693069BD4F8E03043F04003E5
:10395800C4F8E030D4F8E03003F040030793079B45
:10396800D4F8F03043F40003C4F8F030D4F8F03061
:1039780003F400030893089BFFF766FFD4F8D830D8
:10398800296843F001032F4A3048C4F8D830891A0F
:10399800D4F8D83018BF012103F001030993099B1B
:1039A8000BB0BDE83040FFF7FFBE274C2848D4F8DD
:1039B800E03043F00103C4F8E030D4F8E03003F01D
:1039C80001030093009BD4F8E03043F01003C4F8DF
:1039D800E030D4F8E03003F010030193019BD4F8F1
:1039E800E03043F04003C4F8E030D4F8E03003F0AE
:1039F80040030293029BD4F8F03043F48003C4F8E8
:103A0800F030D4F8F03003F480030393039BFFF7FE
:103A18001BFFD4F8D830296843F00103084A0C4842
:103A2800C4F8D830891AD4F8D83018BF012103F067
:103A380001030493049B0BB0BDE83040FFF7B4BE0C
:103A480004580140045C014000440258C80F002497
:103A58006C0D0024014801F035BF00BFC40E0024DE
:103A6800014801F02FBF00BF3C0F0024014801F0BE
:103A780029BF00BF20110024014801F023BF00BF67
:103A8800981100241A4A0368934210B40BD02032CC
:103A9800934208D0174A934216D02032934213D04B
:103AA8005DF8044B7047144B0022D3F85442C3F816
:103AB8005822002CF4D0D3F84802D3E993122346B5
:103AC8005DF8044B520818470B4B0022D3F8B0445A
:103AD800C3F8B424002CE3D0D3F8AC24D3F8A8144A
:103AE800D3F8A404520823465DF8044B184700BFD6
:103AF80004580140045C01406C0D0024184A036816
:103B0800934210B40BD02032934208D0154A934206
:103B180017D02032934214D05DF8044B7047124BF3
:103B2800D3E994245208C3F85822002CF4D0D3E9DE
:103B38009201234601EB820100EB82005DF8044B01
:103B48001847094BD3F8AC24D3F8B0445208C3F84B
:103B5800B424002CE0D0D3F8A814D3F8A404E8E7E0
:103B680004580140045C01406C0D00240000000072
:103B78002DE9F04F0C684FF41776754F87B004FBAA
:103B880006F6012C07EB060AC0F800A000F3A08097
:103B98000D468E464FF00008D44669A3D3E90023AA
:103BA80069A1D1E90001CDE9022306ABCAF8508228
:103BB80003EB8403CDE9040153F810BC53F8083C27
:103BC800CAE992880193BEE80F00ACE80F00BEE88E
:103BD8000F00ACE80F00019B9EE80300CAF828B06C
:103BE800CAF8C0308CE803002B69042B0CD8DFE836
:103BF80003F0737D879103004FF41773554A03FB55
:103C080004739A64C3F8E020AA692B6A002A43D097
:103C1800002B4FF4177308BF022203FB047318BF6D
:103C28000322DA6201221A63EA696B6A002A40D128
:103C3800191E4FF4177318BF012103FB0473C3E95E
:103C480031126B69022B05D8434A12F80380434AA4
:103C580052F823904FF4177306F12800424649465C
:103C680003FB04740023384463646363E365C4F8A6
:103C7800DC30C4F8CC30C4F8F430C4E90F33C4E9FC
:103C88001533C4E93533C4E93B33022306F00CFA93
:103C9800002849D0FFBEFEE7191E4FF4177318BF5E
:103CA800012103FB0473C3E90B12EA696B6A002A5A
:103CB800BED0002B4FF4177308BF022203FB047316
:103CC80018BF0322C3F8C4200122C3F8C820B8E7EC
:103CD800012007B0BDE8F08F4FF417734FF4FA5284
:103CE80003FB04739A64C3F8E0208DE74FF417735D
:103CF8004FF47A5203FB04739A64C3F8E02083E715
:103D08004FF417734FF4FA4203FB04739A64C3F831
:103D1800E02079E74FF417734BF6803203FB047306
:103D28009A64C3F8E0206FE706F1C0000223424618
:103D38004946384406F0B8F90028CAD0FFBEFEE765
:103D480004580140045C014024580140245C0140AF
:103D58006C0D002400770100FCB0000800B10008D9
:103D68000068704770B5046882B015460E46C4F8FE
:103D78005032C4E99212069AC4F85422226A012ADF
:103D88009AB211D0294604F12800019206F048FAA7
:103D9800636A019A012B10D0294604F1C00006F08D
:103DA8003FFA002002B070BD04F12800019206F02D
:103DB800C9FA636A019A012BEED1314604F1C000B9
:103DC80006F0C0FA002002B070BD00BF03681B698E
:103DD800042B05D8044A02EB830393ED000A7047CD
:103DE8009FED020A704700BF0CB1000800803B47F6
:103DF8000368D3F858027047704700BF08B500F051
:103E08001BFABDE8084001F0FBB800BF704700BFCF
:103E180000F024BA2DE9F041CEB004464C2200212E
:103E28000AA806F0F1FF2022002102A806F0ECFF04
:103E3800BC2200211EA806F0E7FF022003F0DEFCEA
:103E48002368012B4FF0000354D0534A02250193F5
:103E5800C820D16A514B21F00101D162D26A02F027
:103E6800010201929A6942F440429A619B6903F403
:103E780040430193019B494A93699B04FCD54849F7
:103E88000224002201268B6A04274FF0080823F039
:103E9800030323438B62052316900AA818934FF453
:103EA80080331096179419941597CDF86880CDE94A
:103EB8001B222122CDE91344CDE90A2304F088F915
:103EC80000B1FEE73F220323294602A8CDE90223D9
:103ED80000220823CDE9042340224023CDE906230C
:103EE80040234FF48062CDE9082304F09FFC034689
:103EF800B8B1FEE7294A04250093F0209169264BC2
:103F080041F440419161926902F440420092DA6AB8
:103F180042F00102DA62DB6A03F001030093009BBE
:103F2800A9E720224FF4805125934FF440152B9296
:103F380080222D931EA83093269135914FF48071DD
:103F4800249234920C223394439140F22711209208
:103F58001022CDF884802A971F96CDE92E34CDE91A
:103F68003B334FF48033CDE9224631930024469306
:103F78000623CDE93E4527934FF48063094C2C93E3
:103F88001E94CDE9281204F091FE00B1FEE703F07B
:103F98005BFC4EB0BDE8F0810004005800480258B0
:103FA8000044025809130F032DE9F04104460D4659
:103FB80084B001264FF480774FF00008D1E9000162
:103FC80084E8030000F008F92046FFF723FF00F01B
:103FD800C5FF4FF040536846ADF800600193364B7B
:103FE8000397029300F0D8FF4FF040431922684628
:103FF8008DF80F6001938DF80820ADF80D708DF8DD
:1040080001608DF80A8000F0C7FF042000F0B4FFBB
:1040180006F08CFCFEF7C6FF2B791BBB6B799BB1B6
:10402800BFF34F8FBFF36F8F244B0022C3F850228A
:10403800BFF34F8FBFF36F8F5A6942F400325A6152
:10404800BFF34F8FBFF36F8F0022002369461C48D0
:10405800CDE9002306F0FEFB194806F05DFC04B02C
:10406800BDE8F081154CC4F88480BFF34F8FD4F8B5
:10407800803043F6E071C3F3C906C3F34E334FEA09
:10408800431C0CEA0100334640EA8372013BC4F842
:1040980060225A1CF8D1ACF1200C1CF1200FF0D191
:1040A800BFF34F8F636943F480336361BFF34F8F6E
:1040B800BFF36F8FB2E700BF0E00010300ED00E011
:1040C8002412002404F0E2BC03480023034A0449F4
:1040D800036006F053BE00BF241200240000002431
:1040E800013E000810B41A4C00221A4BD4F888106C
:1040F800194841F47001C4F888101968174C41F048
:10410800010119601A6119680840154918609A6117
:10411800DA611A629A62DA621A635A639A63DA6334
:104128001A645A64186820F4802018601A66236894
:104138001940B1F1005F03D20A4B0122C3F80821EC
:10414800034B4FF000625DF8044B9A60704700BF64
:1041580000ED00E0004402587FEDF6EA0010005C34
:104168000000FFFF00800051024B027853F8220044
:10417800704700BF50B10008024B427833F8120074
:10418800704700BF30B10008704700BF0F4B1B7865
:104198000BB90120704710B504464FF47A700C4AE9
:1041A800B0FBF3F31068B0FBF3F000F0C1FE0F2C86
:1041B80000D808B1012010BD002221464FF0FF3081
:1041C80000F056FE034B00201C6010BD14000024B4
:1041D8000C0000241800002438B50320124D00F00C
:1041E80035FE124C04F082FA114A12499369C3F35E
:1041F8000323CB5C03F01F0320FA03F30F202B608B
:10420800926902F00F028A5C02F01F02D340236019
:10421800FFF7BCFF10B10124204638BD0446FFF764
:10422800B3FF204638BD00BF0C0000241000002456
:104238000044025820B10008034A044B11681B7857
:104248000B441360704700BF281200241400002498
:10425800014B1868704700BF2812002438B504467F
:10426800FFF7F6FF0546631C02D0044B1B781C447D
:10427800FFF7EEFF431BA342FAD338BD1400002416
:10428800014B1868000C70470010005C704700BFB5
:10429800806B08B5FFF7FAFF08BD00BF836B5A6D46
:1042A80012F0500F5A6D10B51DD1196842F4007202
:1042B8005A650A6812F0080FCA681BD012F4406FDA
:1042C8000DD1CA6894040AD45A6D22F480725A65D2
:1042D8005A6DD10403D45A6D42F001025A6518464A
:1042E800FEF758FB10BDD2060AD4DB6CBDE81040BF
:1042F800DB6C18479007E7D01846FEF74BFBF1E751
:104308001846FEF7EDFB10BD806B08B5436D43F012
:1043180040034365836D43F004038365FEF7E0FBC8
:1043280008BD00BFF0B5002283B0019290F850207C
:10433800012A00F01C81034601201A6883F8500006
:104348009468640700F18A800C68C4F31305002D93
:1043580040F08F80C4F38464A0404D684FF01F0E76
:10436800D6694FEA951C30430CF00C0CD06105F06F
:104378001F0002F1300584400EFA00FE5CF80500CB
:1043880020EA0E0004434CF80540906840076ED4BC
:10439800956815F0080547D10C68072002F1140646
:1043A800B94F4FEAD45CC4F304540CF0040C00FA7F
:1043B80004FE886800FA04F45CF8060020EA0E009F
:1043C80020434CF80600386800F07040B0F1805F78
:1043D80000F0C580D068D668C70600F1E880C6F34B
:1043E80082064869760000FA06F60F69042F00F085
:1043F800C18002F16004086854F827C000F0F84052
:104408000CF0004C40EA0C00304344F82700487E8A
:104418000E69012854F8260008BF4FF0004520F027
:104428000040054344F826509068C40714D4CE6869
:10443800086806F01807954CD2F8C050FC40C0F345
:104448001307044025EA07052C43C2F8C040904CE6
:10445800A64246D0002816DB002003E05A6D42F041
:1044680020025A65002283F8502003B0F0BD9068FE
:10447800DAE794FAA4F5B5FA85F5C4F3846405F08F
:104488001F05A84069E783498A4200F0B68001F514
:1044980080718A4200F0B1807F4D804CA968A46881
:1044A80001F0E076E44304F00104002C00F0B4804D
:1044B8007B4CA04200F0FC807A4CA04200F01A81AC
:1044C800794CA042C8D14902C6D474498A42C3D1A2
:1044D800AA68002022F0E072324342F48002AA6007
:1044E800C0E7002F6AD090FAA0F4B4FA84F401343B
:1044F80004F01F04092C00F2A48090FAA0F4B4FA86
:1045080084F490FAA0F5B5FA85F501340126013551
:10451800A40605F01F0504F0F84406FA05F52C4337
:1045280090FAA0F0B0FA80F0304400F01F0000EBE1
:10453800400000052043C60D02F11405C0F30450E5
:10454800072406F0040604FA00F7745924EA07045D
:104558008F6807FA00F02043705108687AE7D66838
:104568004869C6F38206760000FA06F63DE702209F
:1045780003B0F0BD106E0C6800F0F840A506B0EB73
:10458800846F30D0506E00F0F840854226D0906E8F
:1045980000F0F84085422BD0D06E00F0F8408542FC
:1045A8007FF442AFD06E20F00040D0663CE776083A
:1045B800486906F0080600FA06F616E7800E441C5D
:1045C80004F01F06092E2DD8A406012004F0F84493
:1045D800B040044306EB46000005ABE7506E20F000
:1045E80000405066D3E7106E20F000401066C9E71F
:1045F800906E20F000409066CEE7264C2B4D04F5D7
:104608008074A96854F8F86CA468344301F0E07623
:10461800E44304F0010448E75A6D012042F0200207
:104628005A651FE706EB4600A50601241E3805F06B
:10463800F84504FA06F60005354340F000702843B3
:1046480079E790FAA0F5B5FA85F590FAA0F4B4FAEE
:1046580084F4013501260134AD0604F01F0405F089
:10466800F84506FA04F4254390FAA0F4B4FA84F461
:10467800344404F01F0404EB4404A4F11E000005B4
:1046880040F00070DBE700BF0010005CFFFF0F0088
:104698000000FF47002002400063025800600258F3
:1046A800000084CB000052C70000B8CF00230240AE
:1046B80008023FF5D1AE17498A427FF4CDAE164ABB
:1046C800A9681268154821F0E07192093143A0FBEE
:1046D800020241F400019209A96052000192019A74
:1046E800002A3FF4B9AE019A013A0192019A002AD0
:1046F800F9D1B1E611F080707FF4AEAE05498A4277
:104708007FF4AAAEAA6822F0E072324342F08072C7
:10471800AA60A7E6006002580C000024632D3E053D
:1047280003689A68D20701D5002070479968214A22
:10473800114270B5044608D0636D012043F01003A0
:104748006365A36D0343A36570BD99681A4A0A405F
:1047580042F001029A60FFF77BFD2368174A05467D
:1047680093421ED002F5807293421AD0144A92687E
:10477800114E0AE09A68324042F001029A60FFF74F
:1047880067FD401B0228D7D823681A68D2070FD4C0
:104798009A68D107EED5FFF75BFD401B0228F3D9D5
:1047A800CAE7084A9268D006E2D0074A9342DFD1A6
:1047B800002070BD3F000080C0FFFF7F0020024046
:1047C8000063025800230240002102402DE9F04115
:1047D8003A4D044600680F461646A84219D0384B91
:1047E800984216D0374DAB688068420716D494F8C3
:1047F8005020012A12D003F01F080122B8F1090F36
:1048080084F850200DD90023012084F85030BDE8E9
:10481800F0812D4DAB6880684207E8D50220BDE8DD
:10482800F08140F2212323FA08F3DB4313EA02055F
:10483800E9D12046FFF774FF002839D1626D234B78
:104848002168134043F480736365B8F1000F02D008
:104858001B4B994203D0636D23F480136365636D2A
:1048680013F4805328D0A36D23F00603A365E06CEE
:104878003346174D3A464031C563164D0564164D0B
:10488800C5641C2541F8405C002584F8505051F857
:104898003C5C45F0100541F83C5C00F059FE22688C
:1048A8000E4B91680B4043F004039360BDE8F08120
:1048B80084F85050BDE8F081A365D8E70020024095
:1048C800002102400063025800230240FEF0FFFF6F
:1048D800A54200089942000811430008C0FFFF7F65
:1048E80038B503689A68910702D59B68002038BDDF
:1048F8009A68D20723D59A68044602F00D02012A65
:1049080008D0636D012043F010036365A36D034372
:10491800A36538BD986803210A4A024042F00202A2
:104928009A601960FFF794FC054604E0FFF790FCD5
:10493800401B0228E5D823689B68DB07F6D40020D3
:1049480038BD00BFC0FFFF7F38B5574A044603682B
:10495800934226D002F58072934222D0534B9B6833
:1049680013F4403F22D004F07BF863680546B3F5A2
:10497800003F00F08880B3F5403F70D0B3F5803F2A
:1049880000F08180FFF77CFC41F2030398422DD8A8
:10499800474B9D425DD92268936843F480739360C6
:1049A80038BD444B9B6813F4403FDCD14FF40020E2
:1049B80005F0F4F863680546B3F5101F6DD008D804
:1049C800B3F5E01F55D01AD9B3F5001FDAD1450960
:1049D800D8E7B3F5201F4AD0B3F5301FD2D1FFF77F
:1049E8004FFC41F20303984233D92D0A324B9D42C2
:1049F8001DD82268936823F44073936038BDB3F5DB
:104A0800801F06D00AD9B3F5A01F02D0B3F5C01F86
:104A1800B8D19B0C5B00B5FBF3F5B3E7B3F5002FFA
:104A2800F7D023F40022B2F5802FF2D0AAE7234B67
:104A3800234A2B4493421ED9224B234A2B449342A8
:104A4800226893682BD823F4407343F4007393606F
:104A580038BD2268936823F48073936038BD850855
:104A6800FFF70EFC41F203039842BFD890E7C5094F
:104A780088E7050986E72268936823F4407343F4BE
:104A88008073936038BD1B0CB5FBF3F5FFF7F8FB9B
:104A980041F203039842A9D87AE7850972E743F4FB
:104AA8004073936038BD00BF002002400063025885
:104AB800002D310100230240105E5F00EFA1A0FF2E
:104AC8000F5E5F00DF4341FF1FBCBE0030B500230F
:104AD80083B00193002800F0D080456D0446002D76
:104AE80000F0BA80226893689B0003D59168714BE7
:104AF8000B4093609368DD0015D46F4B90686F4945
:104B08001B6801406E489B0941F08051A0FB0303DC
:104B180091609B090193019B2BB1019B013B019380
:104B2800019B002BF9D19368D80024D4636D01252B
:104B380043F010036365A36D2B43A365936813F0DB
:104B4800040F636D1DD1D9061BD4636D23F48173E3
:104B580043F0020363659368DB0728D4594B9A42F4
:104B680017D003F580739A4213D0574B9B68D90727
:104B78001DD4564A15E09368002513F0040F636DA1
:104B8800E1D0636D012543F010032846636503B047
:104B980030BD4C4A4E4B92689B681343D80706D4E5
:104BA8004C4A9368616823F47C130B439360FFF7C6
:104BB80067FB41F20303A1689842237F52D894F817
:104BC80015C01A04206B42EA4C3202430A43012BF7
:104BD80003D1236A013B42EA4342636A23B103F4E7
:104BE8007873A16A0B431A4323683B49D86801408C
:104BF8000A43DA609A6812F0040F9A681CD1120707
:104C08001AD4D868354A217D024042EA8132E16AE5
:104C18000A43DA6094F83820012A3AD01A6922F057
:104C280001021A611A692046616B22F070420A4338
:104C38001A61FFF789FE2368E268012A21D01A6BFE
:104C480022F00F021A63636D284623F0030343F032
:104C58000103636503B030BDFDF74AFEA56584F81E
:104C680050503FE71029AAD1617D1A0442EA413227
:104C7800216B0A4342F01C02A9E70125284603B02C
:104C880030BD196BA26921F00F01013A0A431A637A
:104C9800D9E7D4E9102118690A43114901400A43A8
:104CA800A16C0A43E16B42EA014242F001021A6137
:104CB800B8E700BFC0FFFF5F0C000024C0FFFF6F14
:104CC800632D3E0500200240006002580063025830
:104CD800002102400023024003C0F0FFFCBFFFFF99
:104CE8001EF800FCF0B5002383B0019390F8503013
:104CF800012B40D0012304460E46154680F850305B
:104D0800FFF7EEFDE8B9676D05F080421B4B06F42E
:104D180080311B4D3B401B4F43F002036365236802
:104D28009E68354015430D4345F000459D609A68DF
:104D3800002A0FDB636D23F0030343F0010363656F
:104D480003E0636D43F010036365002384F850307B
:104D580003B0F0BD019A01320192019ABA42E6D934
:104D6800636D0022012023F0120384F8502043F0E1
:104D780010036365ECE7022003B0F0BDFDEEFFFF12
:104D8800C0FFFE3FFF955A55F0B490F850200E68CA
:104D9800012A49D00346294A01201C6883F850009B
:104DA800944208D05A6D002142F0200283F8501036
:104DB8005A65F0BC7047224DAA6852070AD5A26806
:104DC8005A6D012042F020025A65002283F85020D3
:104DD800F0BC7047A06810F00400F1D1C6B1DFF84C
:104DE80068C04F68DCF8082022F440423A43CCF807
:104DF8000820A468AA682243D40713D48A68DCF878
:104E0800081016430F4A0A401643CCF80860DCE73E
:104E18000D498A6822F440428A60A068AA68024361
:104E2800D00704D50020D0E70220F0BC70478C687A
:104E38003046044A22408A60C7E700BF002002408B
:104E480000210240E0F0FFFF0023024006494FF630
:104E5800FF0C0002054BCA6800F4E06002EA0C028D
:104E680010430343CB60704700ED00E00000FA05F3
:104E78001B4BDB68C3F3022300B5C3F1070E03F134
:104E8800040CBEF1040F28BF4FF0040EBCF1060F4E
:104E98001AD9033B4FF0FF3C0CFA03FC22EA0C0240
:104EA8004FF0FF3C00280CFA0EFC21EA0C0101FA35
:104EB80003F141EA02010ADB09010A4BC9B20344C2
:104EC80083F800135DF804FB00221346E8E700F0BE
:104ED8000F000901044BC9B2034419765DF804FBBD
:104EE80000ED00E000E100E0FCEC00E0002807DB5A
:104EF80000F01F0101234009024A8B4042F820308C
:104F0800704700BF00E100E000280DDB43090122E3
:104F180000F01F000549203302FA00F041F8230091
:104F2800BFF34F8FBFF36F8F704700BF00E100E002
:104F3800431EB3F1807F0CD24FF0E02200200649D7
:104F48004FF0F00C5361072381F823C0906113617F
:104F580070470120704700BF00ED00E0BFF35F8F8E
:104F6800044B00215A6A22F480325A62C3F8941022
:104F7800704700BF00ED00E0064B40F00100C3F8A9
:104F880094005A6A42F480325A62BFF34F8FBFF3DB
:104F98006F8F704700ED00E0174A4378C2F89830E9
:104FA800017821B3436800B5C2F89C30C37A90F801
:104FB8000CC01B0690F80FE043EA0C7390F80AC087
:104FC8000B43817B43EACC4390F80DC043EA8C4302
:104FD80090F809C043EA4143017A43EA0E4343EAA1
:104FE8000C2343EA4103C2F8A0305DF804FBC2F881
:104FF8009C10C2F8A010704700ED00E0704700BF99
:1050080008B5FFF7FBFF08BD0268344B344930B4DC
:10501800344D354CAA4218BF9A420CBF01230023D5
:105028008A4208BF43F001033031A24208BF43F06F
:10503800010330348A4208BF43F001033031A242F1
:1050480008BF43F0010330348A4208BF43F001032C
:1050580001F55C71A24208BF43F0010304F55C74DA
:105068008A4208BF43F001033031A24208BF43F02F
:10507800010330348A4208BF43F001033031A242B1
:1050880008BF43F0010330348A4208BF43F00103EC
:105098003031A24208BF43F001038A4208BF43F0FF
:1050A800010313B9114B9A4213D1D3B21049114CD1
:1050B800103BA1FB03515F2B0F4BC1F3021103EA15
:1050C8000203615C88BF0433C1658365184630BC40
:1050D800704722F0FF038365F8E700BF1000024025
:1050E800400002402800024058000240B804024034
:1050F800ABAAAAAA80B1000800FCFFFF0368294AEE
:10510800294930B4294D2A4CAB4218BF93420CBFF1
:10511800012200228B4208BF42F001022831A3423B
:1051280008BF42F0010228348B4208BF42F0010256
:105138002831A34208BF42F001028B4208BF42F067
:10514800010212B91B4A934213D1DBB21A4C1B4A13
:105158000121083B1A4DA4FB0343456602EB1312D9
:10516800C3F30413920001FA03F30266836630BCAA
:105178007047DAB21349144C1944103AA829A4FB11
:1051880002234FEA131300D80833104A03F01F050F
:1051980001210F4C1A44A9404466920081660266B8
:1051A800E5E700BF08540258305402581C5402580E
:1051B8004454025894540258CDCCCCCC00960016D6
:1051C80080580258F0FBFDBFABAAAAAA00820010C3
:1051D8008008024070B50446FFF73AF8002C00F04A
:1051E800C68023680546954A934248D018329342B0
:1051F80045D0303292498B4218BF934201F13001B9
:105208000CBF012200228B4208BF42F00102183174
:105218008B4208BF42F0010218318B4208BF42F0AE
:10522800010218318B4208BF42F0010201F55671A4
:105238008B4208BF42F0010218318B4208BF42F08E
:10524800010218318B4208BF42F0010218318B422B
:1052580008BF42F0010218318B4208BF42F0010238
:1052680018318B4208BF42F0010218318B4208BF47
:1052780042F001021AB9734A934240F0F5800222C3
:10528800002184F8352084F834101A6822F00102CD
:105298001A6005E0FEF7DCFF431B052B40D82368A6
:1052A8001A68D107F6D4D4E9022521692A43A069EE
:1052B8001D680A4361690A43E16902430A43624976
:1052C8002940256A2A430A43616A04292FD01A60B3
:1052D8005A6922F00702114359612046FFF794FEEC
:1052E800E26D3F2302F01F02934083602046FFF7E0
:1052F80005FFA368802B3CD06368A06EDAB2013B3F
:10530800D4E91851072B2A60486026D90023C4E93C
:105318001B33636700200123606584F8353070BD56
:10532800202203230120626584F8353070BDD4E95A
:105338000B5129430A431A605969A26A21F00701EF
:10534800114341F00401002DC6D000284FD1012A95
:105358006ED032F00202BFD151E0501E072810D99A
:10536800626FD4E91B31002018604A60D2E701203F
:1053780070BD0023A16ED4E9180263600360516018
:10538800C4E72168314B324DA94218BF994205F153
:1053980014050CBF01230023A94208BF43F00103F1
:1053A8001435A94208BF43F001031435A94208BFC8
:1053B80043F001031435A94208BF43F00103143533
:1053C800A94208BF43F001033BB9224B994204D0DC
:1053D800214B224913449B0003E0214B21491344EC
:1053E8009B0001228240C4E91B316267BBE7B0F52C
:1053F800005F0ED0022A05D9032A7FF46DAFEA01B7
:105408007FF56AAF012340221846626584F835307B
:1054180070BD032A3FF660AF01A050F822F000BF2C
:105428000D540008075400080D54000839540008AA
:10543800B5F1C07F7FF450AFE4E700BF1000024031
:1054480040000240B80402403F8010FE0854025851
:105458001C540258945402583F82001040090240DC
:105468003F96001640590258324A3348334983421E
:1054780018BF934200F128000CBF012200228B4282
:1054880008BF42F001022831834208BF42F00102FE
:1054980028308B4208BF42F001022831834208BFFE
:1054A80042F001028B4208BF42F0010212B9244ABD
:1054B800934238D102220021224D84F8341084F816
:1054C80035201A681540A268402A2AD0802A0CBFC5
:1054D8004FF480400846266AD4E90312D20842EA0B
:1054E800D102616942EAD102A16942EAD102E169C5
:1054F80042EAD102144942EA161219442A430243E5
:105508001248A0FB010120461A600B099B00E365C5
:10551800FFF77AFDE26D012302F01F02934043601A
:10552800E4E61020D7E7402203230120626584F8CF
:10553800353070BD085402581C5402583054025873
:10554800945402580F00FEFFF8ABFDA7CDCCCCCC8D
:10555800002800F0BC80844690F83400012800F050
:10556800B88001202DE9F0419CF835408CF83400D2
:10557800844208D000224FF400638CF83420CCF821
:105588005430BDE8F0810220DCF800507A4C8CF8E9
:1055980035000020794ECCF854007948854218BF70
:1055A800A54200F118000CBF01240024854208BF61
:1055B80044F001041830854208BF44F00104183053
:1055C800854208BF44F001041830854208BF44F002
:1055D800010400F55670854208BF44F001041830F4
:1055E800854208BF44F001041830854208BF44F0E2
:1055F80001041830854208BF44F001041830854280
:1056080008BF44F001041830854208BF44F0010483
:105618001830854208BF44F001041830854208BF9D
:1056280044F00104A0F59560B54218BF8542DCF846
:105638006C600CBF0120002054EA0008286820F0A4
:1056480001002860DCF86400DCF86840DCF8587079
:10565800446040D016B1DCE91C044460DCF85C000E
:105668004FF03F0E00F01F000EFA00F0B8602868F7
:1056780020F4802028606B60DCF80830402B23D0B1
:10568800A960EA602B6823F01E0343F016032B6021
:10569800DCF840301BB12B6843F008032B60DCF8C2
:1056A80060301A68D20303D51A6842F480721A600F
:1056B8001EB1336843F4807333602B68002043F0D5
:1056C80001032B60BDE8F081AA60E960DAE70120F8
:1056D80070470220704716B1DCE91C044460294871
:1056E800DFF8A8E0754518BF85420EF1140E0CBF0F
:1056F80001200020754508BF40F001000EF1140E8E
:10570800754508BF40F001000EF1140E754508BF3D
:1057180040F001000EF1140E754508BF40F001007D
:105728000EF1140E754508BF40F0010010B9164877
:1057380085420ED1DCF85C0000F01F0E012000FA53
:105748000EF078606B60DCF80830402B10D0A96050
:10575800EA602B6823F00E0343F00A032B60DCF8A1
:105768004030002B9BD02B6843F004032B6096E756
:10577800AA60E960EDE700BF40000240280002404F
:105788005800024008540258945402581C540258B5
:1057980000285FD038B590F835200346022A55D145
:1057A8000168444A914248D01832914245D030327B
:1057B800414C4248A14218BF914204F148040CBF31
:1057C80001220022814208BF42F001023030A1428A
:1057D80008BF42F001023034814208BF42F00102A2
:1057E80000F55C70A14208BF42F0010204F55C7448
:1057F800814208BF42F001023030A14208BF42F0A6
:1058080001023034814208BF42F001023030A14227
:1058180008BF42F001023034814208BF42F0010261
:105828003030A14208BF42F00102814208BF42F075
:10583800010212B9224A91420ED10422002083F8B3
:1058480035200B6823F001030B6038BD802201204E
:105858005A6538BD012070470A681C6E22F00E0296
:10586800D86D9D6D0A6000F01F000A6822F00102E1
:105878000A6001222168824021F4807121606A60F7
:10588800DA6ED3E91910486032B11168D3E91C0403
:1058980021F4807111604460002401211A6D83F89D
:1058A800344083F835101AB118469047204638BD61
:1058B800104638BD1000024040000240700002400F
:1058C800B80402402DE9F04300229C4B83B09C4E63
:1058D8001D688146019203689A4A846D934218BFF5
:1058E800B342276808BF0126216818BF002645D0A3
:1058F80018329548834218BF934200F118000CBF34
:1059080001220022834208BF42F00102183083427C
:1059180008BF42F001021830834208BF42F001027A
:105928001830834208BF42F0010200F556708342E6
:1059380008BF42F001021830834208BF42F001025A
:105948001830834208BF42F001021830834208BF72
:1059580042F001021830834208BF42F001021830B9
:10596800834208BF42F001021830834208BF42F068
:1059780001021AB9754A934240F05082D9F85C1076
:10598800082201F01F0C02FA0CF2174240F088813D
:1059980027FA0CF2D2070CD55A69100609D501224C
:1059A80002FA0CF2A260D9F8542042F00202C9F8B7
:1059B80054204FF0040E0EFA0CF038425BD0002E43
:1059C8004FD1634ADFF88081434518BF934208F1FD
:1059D80018080CBF01220022434508BF42F001020B
:1059E80008F11808434508BF42F0010208F11808F9
:1059F800434508BF42F0010208F11808434508BFB3
:105A080042F0010208F55678434508BF42F001020A
:105A180008F11808434508BF42F0010208F11808C8
:105A2800434508BF42F0010208F11808434508BF82
:105A380042F0010208F11808434508BF42F001028C
:105A480008F11808434508BF42F0010208F1180898
:105A5800434508BF42F001021AB93C4A934240F05C
:105A680019821A68920706D5A060D9F8542042F026
:105A78000402C9F85420102202FA0CFC1CEA070F91
:105A88006CD0002E45D1324A2F4EB34218BF9342F4
:105A980006F118060CBF01220022B34208BF42F0EB
:105AA80001021836B34208BF42F001021836B34269
:105AB80008BF42F001021836B34208BF42F00102A3
:105AC80006F55676B34208BF42F001021836B342D3
